{
  "address": "0xCf7Ed3AccA5a467e9e704C703E8D87F634fB0Fc9",
  "abi": [
    {
      "inputs": [
        {
          "internalType": "address",
          "name": "vrfCoordinatorV2",
          "type": "address"
        },
        {
          "internalType": "uint256",
          "name": "entranceFee",
          "type": "uint256"
        },
        {
          "internalType": "bytes32",
          "name": "gasLane",
          "type": "bytes32"
        },
        {
          "internalType": "uint64",
          "name": "subId",
          "type": "uint64"
        },
        {
          "internalType": "uint32",
          "name": "gasLimit",
          "type": "uint32"
        },
        {
          "internalType": "uint256",
          "name": "interval",
          "type": "uint256"
        }
      ],
      "stateMutability": "nonpayable",
      "type": "constructor"
    },
    {
      "inputs": [
        {
          "internalType": "address",
          "name": "have",
          "type": "address"
        },
        {
          "internalType": "address",
          "name": "want",
          "type": "address"
        }
      ],
      "name": "OnlyCoordinatorCanFulfill",
      "type": "error"
    },
    {
      "inputs": [],
      "name": "Raffle__NotEnoughETHEntered",
      "type": "error"
    },
    {
      "inputs": [],
      "name": "Raffle__NotOpen",
      "type": "error"
    },
    {
      "inputs": [],
      "name": "Raffle__TransferFailed",
      "type": "error"
    },
    {
      "inputs": [
        {
          "internalType": "uint256",
          "name": "currentBalance",
          "type": "uint256"
        },
        {
          "internalType": "uint256",
          "name": "numPlayers",
          "type": "uint256"
        },
        {
          "internalType": "uint256",
          "name": "raffleState",
          "type": "uint256"
        }
      ],
      "name": "Raffle__UpkeepNotNeeded",
      "type": "error"
    },
    {
      "anonymous": false,
      "inputs": [
        {
          "indexed": true,
          "internalType": "address",
          "name": "winner",
          "type": "address"
        }
      ],
      "name": "PickedWinner",
      "type": "event"
    },
    {
      "anonymous": false,
      "inputs": [
        {
          "indexed": true,
          "internalType": "address",
          "name": "player",
          "type": "address"
        }
      ],
      "name": "RaffleEnter",
      "type": "event"
    },
    {
      "anonymous": false,
      "inputs": [
        {
          "indexed": true,
          "internalType": "uint256",
          "name": "requestId",
          "type": "uint256"
        }
      ],
      "name": "RequestedRaffleWinner",
      "type": "event"
    },
    {
      "inputs": [
        {
          "internalType": "bytes",
          "name": "",
          "type": "bytes"
        }
      ],
      "name": "checkUpkeep",
      "outputs": [
        {
          "internalType": "bool",
          "name": "upkeepNeeded",
          "type": "bool"
        },
        {
          "internalType": "bytes",
          "name": "",
          "type": "bytes"
        }
      ],
      "stateMutability": "nonpayable",
      "type": "function"
    },
    {
      "inputs": [],
      "name": "enterRaffle",
      "outputs": [],
      "stateMutability": "payable",
      "type": "function"
    },
    {
      "inputs": [],
      "name": "getEntranceFee",
      "outputs": [
        {
          "internalType": "uint256",
          "name": "",
          "type": "uint256"
        }
      ],
      "stateMutability": "view",
      "type": "function"
    },
    {
      "inputs": [],
      "name": "getInterval",
      "outputs": [
        {
          "internalType": "uint256",
          "name": "",
          "type": "uint256"
        }
      ],
      "stateMutability": "view",
      "type": "function"
    },
    {
      "inputs": [],
      "name": "getLatestTimeStamp",
      "outputs": [
        {
          "internalType": "uint256",
          "name": "",
          "type": "uint256"
        }
      ],
      "stateMutability": "view",
      "type": "function"
    },
    {
      "inputs": [],
      "name": "getNumWords",
      "outputs": [
        {
          "internalType": "uint256",
          "name": "",
          "type": "uint256"
        }
      ],
      "stateMutability": "pure",
      "type": "function"
    },
    {
      "inputs": [],
      "name": "getNumberOfPlayers",
      "outputs": [
        {
          "internalType": "uint256",
          "name": "",
          "type": "uint256"
        }
      ],
      "stateMutability": "view",
      "type": "function"
    },
    {
      "inputs": [
        {
          "internalType": "uint256",
          "name": "index",
          "type": "uint256"
        }
      ],
      "name": "getPlayer",
      "outputs": [
        {
          "internalType": "address",
          "name": "",
          "type": "address"
        }
      ],
      "stateMutability": "view",
      "type": "function"
    },
    {
      "inputs": [],
      "name": "getRaffleState",
      "outputs": [
        {
          "internalType": "enum Raffle.RaffleState",
          "name": "",
          "type": "uint8"
        }
      ],
      "stateMutability": "view",
      "type": "function"
    },
    {
      "inputs": [],
      "name": "getRecentWinner",
      "outputs": [
        {
          "internalType": "address",
          "name": "",
          "type": "address"
        }
      ],
      "stateMutability": "view",
      "type": "function"
    },
    {
      "inputs": [],
      "name": "getRequestConfirmations",
      "outputs": [
        {
          "internalType": "uint256",
          "name": "",
          "type": "uint256"
        }
      ],
      "stateMutability": "pure",
      "type": "function"
    },
    {
      "inputs": [
        {
          "internalType": "bytes",
          "name": "",
          "type": "bytes"
        }
      ],
      "name": "performUpkeep",
      "outputs": [],
      "stateMutability": "nonpayable",
      "type": "function"
    },
    {
      "inputs": [
        {
          "internalType": "uint256",
          "name": "requestId",
          "type": "uint256"
        },
        {
          "internalType": "uint256[]",
          "name": "randomWords",
          "type": "uint256[]"
        }
      ],
      "name": "rawFulfillRandomWords",
      "outputs": [],
      "stateMutability": "nonpayable",
      "type": "function"
    }
  ],
  "transactionHash": "0x0b2cc7a5dca0d3f2de29831ab315467537afa71df1657c2d01570c8b1d3e7900",
  "args": [
    "0x5FbDB2315678afecb367f032d93F642f64180aa3",
    "10000000000000000",
    "0x79d3d8832d904592c0bf9818b621522c988bb8b0c05cdc3b15aea1b6e8db0c15",
    "1",
    "50000",
    "30"
  ],
  "numDeployments": 1,
  "solcInputHash": "48bf4983c74f1c31af405b3277f3fd1a",
  "bytecode": "0x6101406040523480156200001257600080fd5b50604051620017eb380380620017eb833981810160405281019062000038919062000292565b858073ffffffffffffffffffffffffffffffffffffffff1660808173ffffffffffffffffffffffffffffffffffffffff1681525050508460a081815250508573ffffffffffffffffffffffffffffffffffffffff1660c08173ffffffffffffffffffffffffffffffffffffffff16815250508360e081815250508267ffffffffffffffff166101008167ffffffffffffffff16815250508163ffffffff166101208163ffffffff16815250506000600160146101000a81548160ff021916908360018111156200010d576200010c6200032e565b5b021790555042600281905550806003819055505050505050506200035d565b600080fd5b600073ffffffffffffffffffffffffffffffffffffffff82169050919050565b60006200015e8262000131565b9050919050565b620001708162000151565b81146200017c57600080fd5b50565b600081519050620001908162000165565b92915050565b6000819050919050565b620001ab8162000196565b8114620001b757600080fd5b50565b600081519050620001cb81620001a0565b92915050565b6000819050919050565b620001e681620001d1565b8114620001f257600080fd5b50565b6000815190506200020681620001db565b92915050565b600067ffffffffffffffff82169050919050565b6200022b816200020c565b81146200023757600080fd5b50565b6000815190506200024b8162000220565b92915050565b600063ffffffff82169050919050565b6200026c8162000251565b81146200027857600080fd5b50565b6000815190506200028c8162000261565b92915050565b60008060008060008060c08789031215620002b257620002b16200012c565b5b6000620002c289828a016200017f565b9650506020620002d589828a01620001ba565b9550506040620002e889828a01620001f5565b9450506060620002fb89828a016200023a565b93505060806200030e89828a016200027b565b92505060a06200032189828a01620001ba565b9150509295509295509295565b7f4e487b7100000000000000000000000000000000000000000000000000000000600052602160045260246000fd5b60805160a05160c05160e0516101005161012051611430620003bb60003960006106a50152600061068201526000610661015260006106250152600081816102fa01526103f7015260008181610337015261038b01526114306000f3fe6080604052600436106100c25760003560e01c8063473f1ddc1161007f5780636e04ff0d116100595780636e04ff0d1461022557806391ad27b414610263578063e55ae4e81461028e578063fd6673f5146102cb576100c2565b8063473f1ddc146101a457806353a2c19a146101cf5780635f1b0fd8146101fa576100c2565b806309bc33a7146100c7578063115cbaf5146100f25780631fe543e31461011d5780632cfcc53914610146578063320229eb146101505780634585e33b1461017b575b600080fd5b3480156100d357600080fd5b506100dc6102f6565b6040516100e99190610b7f565b60405180910390f35b3480156100fe57600080fd5b5061010761031e565b6040516101149190610c11565b60405180910390f35b34801561012957600080fd5b50610144600480360381019061013f9190610dc5565b610335565b005b61014e6103f5565b005b34801561015c57600080fd5b50610165610564565b6040516101729190610b7f565b60405180910390f35b34801561018757600080fd5b506101a2600480360381019061019d9190610e7c565b61056e565b005b3480156101b057600080fd5b506101b961075e565b6040516101c69190610f0a565b60405180910390f35b3480156101db57600080fd5b506101e4610788565b6040516101f19190610b7f565b60405180910390f35b34801561020657600080fd5b5061020f610795565b60405161021c9190610b7f565b60405180910390f35b34801561023157600080fd5b5061024c60048036038101906102479190610fda565b6107a2565b60405161025a9291906110bd565b60405180910390f35b34801561026f57600080fd5b50610278610831565b6040516102859190610b7f565b60405180910390f35b34801561029a57600080fd5b506102b560048036038101906102b091906110ed565b61083b565b6040516102c29190610f0a565b60405180910390f35b3480156102d757600080fd5b506102e0610882565b6040516102ed9190610b7f565b60405180910390f35b60007f0000000000000000000000000000000000000000000000000000000000000000905090565b6000600160149054906101000a900460ff16905090565b7f000000000000000000000000000000000000000000000000000000000000000073ffffffffffffffffffffffffffffffffffffffff163373ffffffffffffffffffffffffffffffffffffffff16146103e757337f00000000000000000000000000000000000000000000000000000000000000006040517f1cf993f40000000000000000000000000000000000000000000000000000000081526004016103de92919061111a565b60405180910390fd5b6103f1828261088e565b5050565b7f000000000000000000000000000000000000000000000000000000000000000034101561044f576040517fbd4e069500000000000000000000000000000000000000000000000000000000815260040160405180910390fd5b6000600181111561046357610462610b9a565b5b600160149054906101000a900460ff16600181111561048557610484610b9a565b5b146104bc576040517f1425571c00000000000000000000000000000000000000000000000000000000815260040160405180910390fd5b6000339080600181540180825580915050600190039060005260206000200160009091909190916101000a81548173ffffffffffffffffffffffffffffffffffffffff021916908373ffffffffffffffffffffffffffffffffffffffff1602179055503373ffffffffffffffffffffffffffffffffffffffff167f0805e1d667bddb8a95f0f09880cf94f403fb596ce79928d9f29b74203ba284d460405160405180910390a2565b6000600254905090565b6000610588604051806020016040528060008152506107a2565b509050806105f75747600080549050600160149054906101000a900460ff1660018111156105b9576105b8610b9a565b5b6040517f584327aa0000000000000000000000000000000000000000000000000000000081526004016105ee93929190611143565b60405180910390fd5b60018060146101000a81548160ff0219169083600181111561061c5761061b610b9a565b5b021790555060007f000000000000000000000000000000000000000000000000000000000000000073ffffffffffffffffffffffffffffffffffffffff16635d3b1d307f00000000000000000000000000000000000000000000000000000000000000007f000000000000000000000000000000000000000000000000000000000000000060037f000000000000000000000000000000000000000000000000000000000000000060016040518663ffffffff1660e01b81526004016106e695949392919061122d565b6020604051808303816000875af1158015610705573d6000803e3d6000fd5b505050506040513d601f19601f820116820180604052508101906107299190611295565b9050807fcd6e45c8998311cab7e9d4385596cac867e20a0587194b954fa3a731c93ce78b60405160405180910390a250505050565b6000600160009054906101000a900473ffffffffffffffffffffffffffffffffffffffff16905090565b6000600161ffff16905090565b6000600361ffff16905090565b600060606000600160149054906101000a900460ff1660018111156107ca576107c9610b9a565b5b600060018111156107de576107dd610b9a565b5b1490506000600354600254426107f491906112f1565b119050600080600080549050119050600080471190508380156108145750825b801561081d5750805b80156108265750815b955050505050915091565b6000600354905090565b60008082815481106108505761084f611325565b5b9060005260206000200160009054906101000a900473ffffffffffffffffffffffffffffffffffffffff169050919050565b60008080549050905090565b60008080549050826000815181106108a9576108a8611325565b5b60200260200101516108bb9190611383565b905060008082815481106108d2576108d1611325565b5b9060005260206000200160009054906101000a900473ffffffffffffffffffffffffffffffffffffffff16905080600160006101000a81548173ffffffffffffffffffffffffffffffffffffffff021916908373ffffffffffffffffffffffffffffffffffffffff160217905550600067ffffffffffffffff81111561095b5761095a610c82565b5b6040519080825280602002602001820160405280156109895781602001602082028036833780820191505090505b506000908051906020019061099f929190610abf565b50426002819055506000600160146101000a81548160ff021916908360018111156109cd576109cc610b9a565b5b021790555060008173ffffffffffffffffffffffffffffffffffffffff16476040516109f8906113e5565b60006040518083038185875af1925050503d8060008114610a35576040519150601f19603f3d011682016040523d82523d6000602084013e610a3a565b606091505b5050905080610a75576040517fa1d04b3900000000000000000000000000000000000000000000000000000000815260040160405180910390fd5b8173ffffffffffffffffffffffffffffffffffffffff167fb112587e57bfa970257f3d54fc52859c6300f6bd7a982462c320fed45c2530ed60405160405180910390a25050505050565b828054828255906000526020600020908101928215610b38579160200282015b82811115610b375782518260006101000a81548173ffffffffffffffffffffffffffffffffffffffff021916908373ffffffffffffffffffffffffffffffffffffffff16021790555091602001919060010190610adf565b5b509050610b459190610b49565b5090565b5b80821115610b62576000816000905550600101610b4a565b5090565b6000819050919050565b610b7981610b66565b82525050565b6000602082019050610b946000830184610b70565b92915050565b7f4e487b7100000000000000000000000000000000000000000000000000000000600052602160045260246000fd5b60028110610bda57610bd9610b9a565b5b50565b6000819050610beb82610bc9565b919050565b6000610bfb82610bdd565b9050919050565b610c0b81610bf0565b82525050565b6000602082019050610c266000830184610c02565b92915050565b6000604051905090565b600080fd5b600080fd5b610c4981610b66565b8114610c5457600080fd5b50565b600081359050610c6681610c40565b92915050565b600080fd5b6000601f19601f8301169050919050565b7f4e487b7100000000000000000000000000000000000000000000000000000000600052604160045260246000fd5b610cba82610c71565b810181811067ffffffffffffffff82111715610cd957610cd8610c82565b5b80604052505050565b6000610cec610c2c565b9050610cf88282610cb1565b919050565b600067ffffffffffffffff821115610d1857610d17610c82565b5b602082029050602081019050919050565b600080fd5b6000610d41610d3c84610cfd565b610ce2565b90508083825260208201905060208402830185811115610d6457610d63610d29565b5b835b81811015610d8d5780610d798882610c57565b845260208401935050602081019050610d66565b5050509392505050565b600082601f830112610dac57610dab610c6c565b5b8135610dbc848260208601610d2e565b91505092915050565b60008060408385031215610ddc57610ddb610c36565b5b6000610dea85828601610c57565b925050602083013567ffffffffffffffff811115610e0b57610e0a610c3b565b5b610e1785828601610d97565b9150509250929050565b600080fd5b60008083601f840112610e3c57610e3b610c6c565b5b8235905067ffffffffffffffff811115610e5957610e58610e21565b5b602083019150836001820283011115610e7557610e74610d29565b5b9250929050565b60008060208385031215610e9357610e92610c36565b5b600083013567ffffffffffffffff811115610eb157610eb0610c3b565b5b610ebd85828601610e26565b92509250509250929050565b600073ffffffffffffffffffffffffffffffffffffffff82169050919050565b6000610ef482610ec9565b9050919050565b610f0481610ee9565b82525050565b6000602082019050610f1f6000830184610efb565b92915050565b600080fd5b600067ffffffffffffffff821115610f4557610f44610c82565b5b610f4e82610c71565b9050602081019050919050565b82818337600083830152505050565b6000610f7d610f7884610f2a565b610ce2565b905082815260208101848484011115610f9957610f98610f25565b5b610fa4848285610f5b565b509392505050565b600082601f830112610fc157610fc0610c6c565b5b8135610fd1848260208601610f6a565b91505092915050565b600060208284031215610ff057610fef610c36565b5b600082013567ffffffffffffffff81111561100e5761100d610c3b565b5b61101a84828501610fac565b91505092915050565b60008115159050919050565b61103881611023565b82525050565b600081519050919050565b600082825260208201905092915050565b60005b8381101561107857808201518184015260208101905061105d565b60008484015250505050565b600061108f8261103e565b6110998185611049565b93506110a981856020860161105a565b6110b281610c71565b840191505092915050565b60006040820190506110d2600083018561102f565b81810360208301526110e48184611084565b90509392505050565b60006020828403121561110357611102610c36565b5b600061111184828501610c57565b91505092915050565b600060408201905061112f6000830185610efb565b61113c6020830184610efb565b9392505050565b60006060820190506111586000830186610b70565b6111656020830185610b70565b6111726040830184610b70565b949350505050565b6000819050919050565b61118d8161117a565b82525050565b600067ffffffffffffffff82169050919050565b6111b081611193565b82525050565b600061ffff82169050919050565b6111cd816111b6565b82525050565b600063ffffffff82169050919050565b6111ec816111d3565b82525050565b6000819050919050565b600061121761121261120d846111b6565b6111f2565b6111d3565b9050919050565b611227816111fc565b82525050565b600060a0820190506112426000830188611184565b61124f60208301876111a7565b61125c60408301866111c4565b61126960608301856111e3565b611276608083018461121e565b9695505050505050565b60008151905061128f81610c40565b92915050565b6000602082840312156112ab576112aa610c36565b5b60006112b984828501611280565b91505092915050565b7f4e487b7100000000000000000000000000000000000000000000000000000000600052601160045260246000fd5b60006112fc82610b66565b915061130783610b66565b925082820390508181111561131f5761131e6112c2565b5b92915050565b7f4e487b7100000000000000000000000000000000000000000000000000000000600052603260045260246000fd5b7f4e487b7100000000000000000000000000000000000000000000000000000000600052601260045260246000fd5b600061138e82610b66565b915061139983610b66565b9250826113a9576113a8611354565b5b828206905092915050565b600081905092915050565b50565b60006113cf6000836113b4565b91506113da826113bf565b600082019050919050565b60006113f0826113c2565b915081905091905056fea2646970667358221220086caaadc0aea15e86c885b90f27adb0424a94324e0d8660c7689b76f4839f2564736f6c63430008110033",
  "devdoc": {
    "kind": "dev",
    "methods": {},
    "version": 1
  },
  "userdoc": {
    "kind": "user",
    "methods": {},
    "version": 1
  },
  "storageLayout": {
    "storage": [
      {
        "astId": 1165,
        "contract": "contracts/Raffle.sol:Raffle",
        "label": "s_players",
        "offset": 0,
        "slot": "0",
        "type": "t_array(t_address_payable)dyn_storage"
      },
      {
        "astId": 1182,
        "contract": "contracts/Raffle.sol:Raffle",
        "label": "s_recentWinner",
        "offset": 0,
        "slot": "1",
        "type": "t_address_payable"
      },
      {
        "astId": 1185,
        "contract": "contracts/Raffle.sol:Raffle",
        "label": "s_raffleState",
        "offset": 20,
        "slot": "1",
        "type": "t_enum(RaffleState)1160"
      },
      {
        "astId": 1187,
        "contract": "contracts/Raffle.sol:Raffle",
        "label": "s_lastTimeStamp",
        "offset": 0,
        "slot": "2",
        "type": "t_uint256"
      },
      {
        "astId": 1189,
        "contract": "contracts/Raffle.sol:Raffle",
        "label": "i_interval",
        "offset": 0,
        "slot": "3",
        "type": "t_uint256"
      }
    ],
    "types": {
      "t_address_payable": {
        "encoding": "inplace",
        "label": "address payable",
        "numberOfBytes": "20"
      },
      "t_array(t_address_payable)dyn_storage": {
        "base": "t_address_payable",
        "encoding": "dynamic_array",
        "label": "address payable[]",
        "numberOfBytes": "32"
      },
      "t_enum(RaffleState)1160": {
        "encoding": "inplace",
        "label": "enum Raffle.RaffleState",
        "numberOfBytes": "1"
      },
      "t_uint256": {
        "encoding": "inplace",
        "label": "uint256",
        "numberOfBytes": "32"
      }
    }
  }
}